:1000000000180020E90500002D0600003106000060
:1000100000000000000000000000000000000000E0
:100020000000000000000000000000002D0600009D
:1000300000000000000000002D0600002D0600005A
:100040002D0600002D0600002D0600002D060000E4
:100050002D0600002D0600002D0600002D060000D4
:100060002D0600002D0600002D0600002D060000C4
:100070002D0600002D0600002D0600002D060000B4
:100080002D0600002D0600002D0600002D060000A4
:100090002D0600002D0600002D0600002D06000094
:1000A0002D0600002D0600002D0600002D06000084
:1000B0002D0600002D0600002D0600002D06000074
:10040000FFFFFFFFFFFFFFFFFFFFFFFFDEF9FFFF23
:10041000EFF3108372B6604A117801201070DB0789
:1004200000D162B6002900D09CE05D498A230B70A0
:10043000EFF3108372B600211170DA0700D162B6B3
:10044000EFF3108372B6574C22782070DB0700D18F
:1004500062B6002A00D087E00404544A1464EFF323
:10046000108272B6524B1D781870D20700D162B656
:10047000002D00D07AE0504D2A782F786B796E7875
:1004800004263E4040271F40920964D1002E00D12F
:1004900079E0002F00D079E06A78CB231340243331
:1004A0006B70AA799207FCD56A789206920F60D099
:1004B0002A7803231340A0332B70AA79D206FCD4E8
:1004C000AA790C263240082AFAD12A79E02313406F
:1004D000DA1D2A716A79A023134040336B71AA791F
:1004E0009206FCD5AA795206FCD5304A134612680A
:1004F00022431A602A783F2313402B70AA79324096
:100500000C2AFBD1EFF3108272B6294B1970D10778
:1005100000D162B62A49096800292DD1C1022A4AB0
:100520001160EFF3108172B6C90700D162B60721DE
:100530000902264A13688B430002181810602448E9
:10054000826820210A438260224A0160134600BF6C
:10055000013BFCD1F9E7012A11D0022A16D1002E65
:1005600011D013E00D4802E00F4800E011482A21A5
:100570000EE000F033F8FEDE1248312108E0002FD3
:1005800004D1002E02D00D48242101E012483E2162
:1005900000F027F8FEDEC04601F8FF1FD406000079
:1005A0000050064002F8FF1FFE06000004800440D1
:1005B00000F8FF1F6C0600000040064048060000DF
:1005C00038808455280700003880044814B004405F
:1005D0008CF00F40B1710B009606000000F027F878
:1005E000FEDEFFF7FBFFFEDE0A49002008600A4935
:1005F0000A4A8A4201D201C2FBE7094809498142FD
:1006000004D2094A08CA08C18142FBD3FFF700FFA0
:10061000FEDEC0460081044004F8FF1F00F8FF1F03
:1006200000F8FF1F00F8FF1F5C070000FEE7FEE771
:1006300070460421084202D1EFF3088002E0EFF394
:060640000980FFE7FEE760
:10064800536F6D65686F772074686520636C6F639E
:100658006B207761736E277420696E2046454920A8
:100668006D6F646543616E6E6F7420696E6974693D
:10067800616C697A65204D43473A20497427732095
:10068800616C726561647920616374697665546828
:10069800652063757272656E7420636C6F636B207E
:1006A8006D6F64652063616E6E6F74206265207281
:1006B8006570726573656E7465642061732061206E
:1006C8006B6E6F776E2073747275637443616E6EB0
:1006D8006F7420696E697469616C697A65204F531B
:1006E800433A204974277320616C726561647920EC
:1006F80061637469766543616E6E6F7420696E69B3
:100708007469616C697A652053494D3A20497427A8
:100718007320616C726561647920616374697665C0
:1007280043616E6E6F742063726561746520506FEB
:10073800727420696E7374616E63653B20697420FE
:10074800697320616C726561647920696E207573C4
:040758006500000038
:04000003000005E90B
:00000001FF
